{
  "contractName": "Liderbords",
  "abi": [
    {
      "inputs": [
        {
          "internalType": "address",
          "name": "_trustedForwarder",
          "type": "address"
        }
      ],
      "stateMutability": "nonpayable",
      "type": "constructor"
    },
    {
      "inputs": [
        {
          "internalType": "address",
          "name": "forwarder",
          "type": "address"
        }
      ],
      "name": "isTrustedForwarder",
      "outputs": [
        {
          "internalType": "bool",
          "name": "",
          "type": "bool"
        }
      ],
      "stateMutability": "view",
      "type": "function",
      "constant": true
    },
    {
      "inputs": [],
      "name": "owner",
      "outputs": [
        {
          "internalType": "address",
          "name": "",
          "type": "address"
        }
      ],
      "stateMutability": "view",
      "type": "function",
      "constant": true
    },
    {
      "inputs": [],
      "name": "trustedForwarder",
      "outputs": [
        {
          "internalType": "address",
          "name": "",
          "type": "address"
        }
      ],
      "stateMutability": "view",
      "type": "function",
      "constant": true
    },
    {
      "inputs": [
        {
          "internalType": "string",
          "name": "_liderbordName",
          "type": "string"
        }
      ],
      "name": "getLiderbord",
      "outputs": [
        {
          "internalType": "string[]",
          "name": "",
          "type": "string[]"
        },
        {
          "internalType": "int256[]",
          "name": "",
          "type": "int256[]"
        },
        {
          "internalType": "int256[]",
          "name": "",
          "type": "int256[]"
        },
        {
          "internalType": "int256[]",
          "name": "",
          "type": "int256[]"
        }
      ],
      "stateMutability": "view",
      "type": "function",
      "constant": true
    },
    {
      "inputs": [
        {
          "internalType": "string",
          "name": "_link",
          "type": "string"
        },
        {
          "internalType": "string[]",
          "name": "_liderbordNames",
          "type": "string[]"
        }
      ],
      "name": "addResource",
      "outputs": [],
      "stateMutability": "nonpayable",
      "type": "function"
    },
    {
      "inputs": [
        {
          "internalType": "string",
          "name": "_link",
          "type": "string"
        }
      ],
      "name": "getResource",
      "outputs": [
        {
          "internalType": "string[]",
          "name": "",
          "type": "string[]"
        },
        {
          "components": [
            {
              "internalType": "int256",
              "name": "upvotes",
              "type": "int256"
            },
            {
              "internalType": "int256",
              "name": "downvotes",
              "type": "int256"
            },
            {
              "internalType": "uint256",
              "name": "index",
              "type": "uint256"
            }
          ],
          "internalType": "struct Liderbords.Score[]",
          "name": "",
          "type": "tuple[]"
        }
      ],
      "stateMutability": "view",
      "type": "function",
      "constant": true
    },
    {
      "inputs": [
        {
          "internalType": "string",
          "name": "_link",
          "type": "string"
        }
      ],
      "name": "deleteResource",
      "outputs": [],
      "stateMutability": "nonpayable",
      "type": "function"
    },
    {
      "inputs": [],
      "name": "claimHappycoins",
      "outputs": [],
      "stateMutability": "nonpayable",
      "type": "function"
    },
    {
      "inputs": [
        {
          "internalType": "address",
          "name": "_user",
          "type": "address"
        }
      ],
      "name": "getUser",
      "outputs": [
        {
          "components": [
            {
              "internalType": "uint256",
              "name": "happycoins",
              "type": "uint256"
            },
            {
              "internalType": "uint256",
              "name": "lastDateClaimed",
              "type": "uint256"
            }
          ],
          "internalType": "struct Liderbords.User",
          "name": "",
          "type": "tuple"
        }
      ],
      "stateMutability": "view",
      "type": "function",
      "constant": true
    },
    {
      "inputs": [
        {
          "internalType": "string",
          "name": "_link",
          "type": "string"
        },
        {
          "internalType": "string",
          "name": "_liderbordName",
          "type": "string"
        },
        {
          "internalType": "int8",
          "name": "_side",
          "type": "int8"
        }
      ],
      "name": "vote",
      "outputs": [],
      "stateMutability": "nonpayable",
      "type": "function"
    },
    {
      "inputs": [
        {
          "internalType": "address",
          "name": "_trustedForwarder",
          "type": "address"
        }
      ],
      "name": "setTrustForwarder",
      "outputs": [],
      "stateMutability": "nonpayable",
      "type": "function"
    },
    {
      "inputs": [],
      "name": "versionRecipient",
      "outputs": [
        {
          "internalType": "string",
          "name": "",
          "type": "string"
        }
      ],
      "stateMutability": "pure",
      "type": "function",
      "constant": true
    }
  ],
  "bytecode": "0x60806040523480156200001157600080fd5b5060405162001ad738038062001ad78339810160408190526200003491620000b6565b600080546001600160a01b0319166001600160a01b0383161790556200005962000080565b600480546001600160a01b0319166001600160a01b039290921691909117905550620000e8565b6000601436108015906200009e57506000546001600160a01b031633145b15620000b1575060131936013560601c90565b503390565b600060208284031215620000c957600080fd5b81516001600160a01b0381168114620000e157600080fd5b9392505050565b6119df80620000f86000396000f3fe608060405234801561001057600080fd5b50600436106100b45760003560e01c80636f77926b116100715780636f77926b146101685780637da0a877146101d85780638da5cb5b146101fd578063c91cf70414610210578063ce3e1ebe14610223578063ddf0b3da1461024657600080fd5b806330e20510146100b9578063486ff0cd146100ce5780634beb279b146100fa578063572b6c051461010257806365d801171461013457806369fb79d914610155575b600080fd5b6100cc6100c7366004611428565b610259565b005b60408051808201825260018152603160f81b602082015290516100f191906114fe565b60405180910390f35b6100cc610604565b610124610110366004611518565b6000546001600160a01b0391821691161490565b60405190151581526020016100f1565b610147610142366004611541565b610804565b6040516100f19291906115d6565b6100cc610163366004611641565b610a63565b6101bd610176366004611518565b6040805180820190915260008082526020820152506001600160a01b0316600090815260036020908152604091829020825180840190935280548352600101549082015290565b604080518251815260209283015192810192909252016100f1565b6000546001600160a01b03165b6040516001600160a01b0390911681526020016100f1565b6004546101e5906001600160a01b031681565b6100cc61021e366004611541565b610c64565b610236610231366004611541565b610dd4565b6040516100f19493929190611763565b6100cc610254366004611518565b611154565b600060018460405161026b91906117bb565b90815260200160405180910390209050600060028460405161028d91906117bb565b908152602001604051809103902090506102a56111b4565b60028301546001600160a01b039081169116141561030a5760405162461bcd60e51b815260206004820152601f60248201527f43616e277420766f7465206f6e20796f7572206f776e207265736f757263650060448201526064015b60405180910390fd5b8260000b6001148061032057508260000b600019145b61036c5760405162461bcd60e51b815260206004820152601d60248201527f566f74652068617320746f206265206569746865722031206f72202d310000006044820152606401610301565b60006003600061037a6111b4565b6001600160a01b03168152602081019190915260400160002054116103e15760405162461bcd60e51b815260206004820152601f60248201527f4e65656420746f2068617665206861707079636f696e7320746f20766f7465006044820152606401610301565b600360006103ed6111b4565b6001600160a01b0316815260208101919091526040016000908120805491610414836117ed565b91905055508060020160006104276111b4565b6001600160a01b031681526020810191909152604001600090812054900b15610517576000600182600201600061045c6111b4565b6001600160a01b03166001600160a01b0316815260200190815260200160002060010160405161048c919061183f565b908152602001604051809103902090508360000b600114156104e25760405181906104b89087906117bb565b90815260405190819003602001902060010180549060006104d8836118db565b9190505550610515565b60405181906104f29087906117bb565b908152604051908190036020019020805490600061050f836118db565b91905055505b505b8260000b6001141561055a5760405182906105339086906117bb565b9081526040519081900360200190208054906000610550836118f1565b9190505550610590565b604051829061056a9086906117bb565b908152604051908190036020019020600101805490600061058a836118f1565b91905055505b60405180604001604052808460000b8152602001868152508160020160006105b66111b4565b6001600160a01b031681526020808201929092526040016000208251815460ff191660ff90911617815582820151805191926105fa926001850192909101906111e8565b5050505050505050565b601e600360006106126111b4565b6001600160a01b03168152602081019190915260400160002054106106795760405162461bcd60e51b815260206004820152601860248201527f4d6178696d756e206f66203330206861707079636f696e7300000000000000006044820152606401610301565b42600360006106866111b4565b6001600160a01b031681526020810191909152604001600020600101546106b09062015180611911565b11806106e25750600360006106c36111b4565b6001600160a01b03168152602081019190915260400160002060010154155b156107b05742600360006106f46111b4565b6001600160a01b03166001600160a01b03168152602001908152602001600020600101819055506014600360006107296111b4565b6001600160a01b031681526020810191909152604001600020541061076557600360006107546111b4565b6001600160a01b0316815260200152565b600a600360006107736111b4565b6001600160a01b03166001600160a01b0316815260200190815260200160002060000160008282546107a59190611911565b909155506108029050565b60405162461bcd60e51b815260206004820152602160248201527f43616e277420636c61696d206861707079636f696e73206265666f72652032346044820152600d60fb1b6064820152608401610301565b565b606080600060018460405161081991906117bb565b908152604051908190036020019020600181015490915060008167ffffffffffffffff81111561084b5761084b611371565b60405190808252806020026020018201604052801561087e57816020015b60608152602001906001900390816108695790505b50905060008267ffffffffffffffff81111561089c5761089c611371565b6040519080825280602002602001820160405280156108f157816020015b6108de60405180606001604052806000815260200160008152602001600081525090565b8152602001906001900390816108ba5790505b50905060005b83811015610a565784600101818154811061091457610914611929565b90600052602060002001805461092990611804565b80601f016020809104026020016040519081016040528092919081815260200182805461095590611804565b80156109a25780601f10610977576101008083540402835291602001916109a2565b820191906000526020600020905b81548152906001019060200180831161098557829003601f168201915b50505050508382815181106109b9576109b9611929565b6020026020010181905250846000018382815181106109da576109da611929565b60200260200101516040516109ef91906117bb565b90815260200160405180910390206040518060600160405290816000820154815260200160018201548152602001600282015481525050828281518110610a3857610a38611929565b60200260200101819052508080610a4e9061193f565b9150506108f7565b5090969095509350505050565b600160036000610a716111b4565b6001600160a01b0316815260208101919091526040016000205411610ad85760405162461bcd60e51b815260206004820152601b60248201527f4e656564203220484320746f206164642061207265736f7572636500000000006044820152606401610301565b600260036000610ae66111b4565b6001600160a01b03166001600160a01b031681526020019081526020016000206000016000828254610b189190611953565b925050819055506000600183604051610b3191906117bb565b9081526020016040518091039020905060005b8251811015610c5e576000838281518110610b6157610b61611929565b60209081029190910181015160018086018054918201815560009081528390208251929450610b9693910191908401906111e8565b506000600282604051610ba991906117bb565b908152602001604051809103902090506040518060600160405280600081526020016000815260200182600001548152508460000183604051610bec91906117bb565b90815260408051602092819003830190208351815583830151600180830191909155938201516002909101558354600090815292840182529091208751610c35928901906111e8565b508054816000610c448361193f565b919050555050508080610c569061193f565b915050610b44565b50505050565b6000600182604051610c7691906117bb565b9081526020016040518091039020905060005b6001820154811015610d8f5760006002836001018381548110610cae57610cae611929565b90600052602060002001604051610cc5919061183f565b9081526020016040518091039020905080600101600060018360000154610cec9190611953565b815260200190815260200160002081600101600085600001866001018681548110610d1957610d19611929565b90600052602060002001604051610d30919061183f565b9081526020016040518091039020600201548152602001908152602001600020908054610d5c90611804565b610d6792919061126c565b508054816000610d76836117ed565b9190505550508080610d879061193f565b915050610c89565b50600182604051610da091906117bb565b9081526040519081900360200190206000610dbe60018301826112e7565b5060020180546001600160a01b03191690555050565b6060806060806000600286604051610dec91906117bb565b90815260405190819003602001902054905060008167ffffffffffffffff811115610e1957610e19611371565b604051908082528060200260200182016040528015610e4c57816020015b6060815260200190600190039081610e375790505b50905060008267ffffffffffffffff811115610e6a57610e6a611371565b604051908082528060200260200182016040528015610e93578160200160208202803683370190505b50905060008367ffffffffffffffff811115610eb157610eb1611371565b604051908082528060200260200182016040528015610eda578160200160208202803683370190505b50905060008467ffffffffffffffff811115610ef857610ef8611371565b604051908082528060200260200182016040528015610f21578160200160208202803683370190505b50905060005b85811015611143576000600160028d604051610f4391906117bb565b9081526040805191829003602090810183206000878152600190910190915220610f6c9161183f565b9081526020016040518091039020905060028c604051610f8c91906117bb565b908152602001604051809103902060010160008381526020019081526020016000208054610fb990611804565b80601f0160208091040260200160405190810160405280929190818152602001828054610fe590611804565b80156110325780601f1061100757610100808354040283529160200191611032565b820191906000526020600020905b81548152906001019060200180831161101557829003601f168201915b505050505086838151811061104957611049611929565b6020026020010181905250806000018c60405161106691906117bb565b90815260200160405180910390206000015484838151811061108a5761108a611929565b602090810291909101015260405181906110a5908e906117bb565b9081526020016040518091039020600101548383815181106110c9576110c9611929565b6020026020010181815250508282815181106110e7576110e7611929565b602002602001015184838151811061110157611101611929565b6020026020010151611113919061196a565b85838151811061112557611125611929565b6020908102919091010152508061113b8161193f565b915050610f27565b509299919850965090945092505050565b61115c6111b4565b6004546001600160a01b039081169116146111935760405162461bcd60e51b81526020600482015260006024820152604401610301565b600080546001600160a01b0319166001600160a01b03831617905550565b50565b6000601436108015906111d157506000546001600160a01b031633145b156111e3575060131936013560601c90565b503390565b8280546111f490611804565b90600052602060002090601f016020900481019282611216576000855561125c565b82601f1061122f57805160ff191683800117855561125c565b8280016001018555821561125c579182015b8281111561125c578251825591602001919060010190611241565b50611268929150611305565b5090565b82805461127890611804565b90600052602060002090601f01602090048101928261129a576000855561125c565b82601f106112ab578054855561125c565b8280016001018555821561125c57600052602060002091601f016020900482015b8281111561125c5782548255916001019190600101906112cc565b50805460008255906000526020600020908101906111b1919061131a565b5b808211156112685760008155600101611306565b8082111561126857600061132e8282611337565b5060010161131a565b50805461134390611804565b6000825580601f10611353575050565b601f0160209004906000526020600020908101906111b19190611305565b634e487b7160e01b600052604160045260246000fd5b604051601f8201601f1916810167ffffffffffffffff811182821017156113b0576113b0611371565b604052919050565b600082601f8301126113c957600080fd5b813567ffffffffffffffff8111156113e3576113e3611371565b6113f6601f8201601f1916602001611387565b81815284602083860101111561140b57600080fd5b816020850160208301376000918101602001919091529392505050565b60008060006060848603121561143d57600080fd5b833567ffffffffffffffff8082111561145557600080fd5b611461878388016113b8565b9450602086013591508082111561147757600080fd5b50611484868287016113b8565b92505060408401358060000b811461149b57600080fd5b809150509250925092565b60005b838110156114c15781810151838201526020016114a9565b83811115610c5e5750506000910152565b600081518084526114ea8160208601602086016114a6565b601f01601f19169290920160200192915050565b60208152600061151160208301846114d2565b9392505050565b60006020828403121561152a57600080fd5b81356001600160a01b038116811461151157600080fd5b60006020828403121561155357600080fd5b813567ffffffffffffffff81111561156a57600080fd5b611576848285016113b8565b949350505050565b600082825180855260208086019550808260051b84010181860160005b848110156115c957601f198684030189526115b78383516114d2565b9884019892509083019060010161159b565b5090979650505050505050565b600060408083526115e98184018661157e565b83810360208581019190915285518083528682019282019060005b818110156116335784518051845284810151858501528601518684015293830193606090920191600101611604565b509098975050505050505050565b6000806040838503121561165457600080fd5b823567ffffffffffffffff8082111561166c57600080fd5b611678868387016113b8565b935060209150818501358181111561168f57600080fd5b8501601f810187136116a057600080fd5b8035828111156116b2576116b2611371565b8060051b6116c1858201611387565b918252828101850191858101908a8411156116db57600080fd5b86850192505b83831015611717578235868111156116f95760008081fd5b6117078c89838901016113b8565b83525091860191908601906116e1565b809750505050505050509250929050565b600081518084526020808501945080840160005b838110156117585781518752958201959082019060010161173c565b509495945050505050565b608081526000611776608083018761157e565b82810360208401526117888187611728565b9050828103604084015261179c8186611728565b905082810360608401526117b08185611728565b979650505050505050565b600082516117cd8184602087016114a6565b9190910192915050565b634e487b7160e01b600052601160045260246000fd5b6000816117fc576117fc6117d7565b506000190190565b600181811c9082168061181857607f821691505b6020821081141561183957634e487b7160e01b600052602260045260246000fd5b50919050565b600080835481600182811c91508083168061185b57607f831692505b602080841082141561187b57634e487b7160e01b86526022600452602486fd5b81801561188f57600181146118a0576118cd565b60ff198616895284890196506118cd565b60008a81526020902060005b868110156118c55781548b8201529085019083016118ac565b505084890196505b509498975050505050505050565b6000600160ff1b8214156117fc576117fc6117d7565b60006001600160ff1b0382141561190a5761190a6117d7565b5060010190565b60008219821115611924576119246117d7565b500190565b634e487b7160e01b600052603260045260246000fd5b600060001982141561190a5761190a6117d7565b600082821015611965576119656117d7565b500390565b60008083128015600160ff1b850184121615611988576119886117d7565b6001600160ff1b03840183138116156119a3576119a36117d7565b5050039056fea2646970667358221220867956335e3e4df908a077b8be4e6b6f9b004c4073bbd2b009184c04fea5896c64736f6c63430008090033",
  "immutableReferences": {},
  "source": "// SPDX-License-Identifier: MIT\npragma solidity ^0.8.9;\n\nimport \"@opengsn/contracts/src/BaseRelayRecipient.sol\";\n\ncontract Liderbords is BaseRelayRecipient {\n    struct Score {\n        int256 upvotes;\n        int256 downvotes;\n        uint256 index;\n    }\n    struct Resource {\n        mapping(string => Score) scores;\n        string[] liderbords;\n        address owner;\n    }\n    struct Vote {\n        int8 side;\n        string resource;\n    }\n    struct Liderbord {\n        uint256 length;\n        mapping(uint256 => string) resources;\n        mapping(address => Vote) voters;\n    }\n    struct User {\n        uint256 happycoins;\n        uint256 lastDateClaimed;\n    }\n    mapping(string => Resource) private resources;\n    mapping(string => Liderbord) private liderbords;\n    mapping(address => User) private users;\n    address public owner;\n\n    modifier onlyOwner() {\n        require(owner == _msgSender(), \"\");\n        _;\n    }\n\n    constructor(address _trustedForwarder) {\n        _setTrustedForwarder(_trustedForwarder);\n        owner = _msgSender();\n    }\n\n    function getLiderbord(string memory _liderbordName)\n        public\n        view\n        returns (\n            string[] memory,\n            int256[] memory,\n            int256[] memory,\n            int256[] memory\n        )\n    {\n        uint256 n = liderbords[_liderbordName].length;\n        string[] memory links = new string[](n);\n        int256[] memory scores = new int256[](n);\n        int256[] memory upvotes = new int256[](n);\n        int256[] memory downvotes = new int256[](n);\n        for (uint256 i = 0; i < n; i++) {\n            Resource storage resource = resources[\n                liderbords[_liderbordName].resources[i]\n            ];\n            links[i] = liderbords[_liderbordName].resources[i];\n            upvotes[i] = resource.scores[_liderbordName].upvotes;\n            downvotes[i] = resource.scores[_liderbordName].downvotes;\n            scores[i] = upvotes[i] - downvotes[i];\n        }\n        return (links, scores, upvotes, downvotes);\n    }\n\n    function addResource(string memory _link, string[] memory _liderbordNames)\n        public\n    {\n        require(\n            users[_msgSender()].happycoins > 1,\n            \"Need 2 HC to add a resource\"\n        );\n        users[_msgSender()].happycoins -= 2;\n\n        // require that the resource does not exist\n        Resource storage resource = resources[_link];\n        for (uint256 i = 0; i < _liderbordNames.length; i++) {\n            string memory liderbordName = _liderbordNames[i];\n            resource.liderbords.push(liderbordName);\n            Liderbord storage liderbord = liderbords[liderbordName];\n            resource.scores[liderbordName] = Score({\n                upvotes: 0,\n                downvotes: 0,\n                index: liderbord.length\n            });\n            liderbord.resources[liderbord.length] = _link;\n            liderbord.length++;\n        }\n    }\n\n    function getResource(string memory _link)\n        public\n        view\n        returns (string[] memory, Score[] memory)\n    {\n        Resource storage resource = resources[_link];\n        uint256 length = resource.liderbords.length;\n        string[] memory liderbordNames = new string[](length);\n        Score[] memory scores = new Score[](length);\n        for (uint256 i = 0; i < length; i++) {\n            liderbordNames[i] = resource.liderbords[i];\n            scores[i] = resource.scores[liderbordNames[i]];\n        }\n        return (liderbordNames, scores);\n    }\n\n    function deleteResource(string memory _link) public {\n        Resource storage resource = resources[_link];\n        for (uint256 i = 0; i < resource.liderbords.length; i++) {\n            Liderbord storage liderbord = liderbords[resource.liderbords[i]];\n            liderbord.resources[\n                resource.scores[resource.liderbords[i]].index\n            ] = liderbord.resources[liderbord.length - 1];\n            liderbord.length--;\n        }\n        delete resources[_link];\n    }\n\n    function claimHappycoins() public {\n        require(\n            users[_msgSender()].happycoins < 30,\n            \"Maximun of 30 happycoins\"\n        );\n        if (\n            users[_msgSender()].lastDateClaimed + 86400 > block.timestamp ||\n            users[_msgSender()].lastDateClaimed == 0\n        ) {\n            users[_msgSender()].lastDateClaimed = block.timestamp;\n            if (users[_msgSender()].happycoins >= 20) {\n                users[_msgSender()].happycoins == 30;\n            } else {\n                users[_msgSender()].happycoins += 10;\n            }\n        } else {\n            revert(\"Can't claim happycoins before 24h\");\n        }\n    }\n\n    function getUser(address _user) public view returns (User memory) {\n        return users[_user];\n    }\n\n    function vote(\n        string memory _link,\n        string memory _liderbordName,\n        int8 _side\n    ) public {\n        Resource storage resource = resources[_link];\n        Liderbord storage liderbord = liderbords[_liderbordName];\n        require(\n            resource.owner != _msgSender(),\n            \"Can't vote on your own resource\"\n        );\n        require(_side == 1 || _side == -1, \"Vote has to be either 1 or -1\");\n        require(\n            users[_msgSender()].happycoins > 0,\n            \"Need to have happycoins to vote\"\n        );\n        users[_msgSender()].happycoins--;\n\n        if (liderbord.voters[_msgSender()].side != 0) {\n            Resource storage prevResource = resources[\n                liderbord.voters[_msgSender()].resource\n            ];\n            if (_side == 1) {\n                prevResource.scores[_liderbordName].downvotes--;\n            } else {\n                prevResource.scores[_liderbordName].upvotes--;\n            }\n        }\n\n        if (_side == 1) {\n            resource.scores[_liderbordName].upvotes++;\n        } else {\n            resource.scores[_liderbordName].downvotes++;\n        }\n        liderbord.voters[_msgSender()] = Vote({side: _side, resource: _link});\n    }\n\n    function setTrustForwarder(address _trustedForwarder) public onlyOwner {\n        _setTrustedForwarder(_trustedForwarder);\n    }\n\n    function versionRecipient() external pure override returns (string memory) {\n        return \"1\";\n    }\n}\n",
  "sourcePath": "/Users/Patricio/Projects/insa/smart/moralis-biconomy-metatransactions/Truffle/contracts/Liderbords.sol",
  "compiler": {
    "name": "solc",
    "version": "0.8.9+commit.e5eed63a.Emscripten.clang"
  },
  "schemaVersion": "3.4.7",
  "updatedAt": "2022-05-05T19:24:20.684Z",
  "networkType": "ethereum",
  "devdoc": {
    "kind": "dev",
    "methods": {},
    "version": 1
  },
  "userdoc": {
    "kind": "user",
    "methods": {
      "isTrustedForwarder(address)": {
        "notice": "return if the forwarder is trusted to forward relayed transactions to us. the forwarder is required to verify the sender's signature, and verify the call is not a replay."
      }
    },
    "version": 1
  }
}