{
  "contractName": "Liderbords",
  "abi": [
    {
      "inputs": [
        {
          "internalType": "address",
          "name": "_trustedForwarder",
          "type": "address"
        }
      ],
      "stateMutability": "nonpayable",
      "type": "constructor"
    },
    {
      "inputs": [
        {
          "internalType": "address",
          "name": "forwarder",
          "type": "address"
        }
      ],
      "name": "isTrustedForwarder",
      "outputs": [
        {
          "internalType": "bool",
          "name": "",
          "type": "bool"
        }
      ],
      "stateMutability": "view",
      "type": "function",
      "constant": true
    },
    {
      "inputs": [],
      "name": "owner",
      "outputs": [
        {
          "internalType": "address",
          "name": "",
          "type": "address"
        }
      ],
      "stateMutability": "view",
      "type": "function",
      "constant": true
    },
    {
      "inputs": [],
      "name": "trustedForwarder",
      "outputs": [
        {
          "internalType": "address",
          "name": "",
          "type": "address"
        }
      ],
      "stateMutability": "view",
      "type": "function",
      "constant": true
    },
    {
      "inputs": [
        {
          "internalType": "string",
          "name": "_liderbordName",
          "type": "string"
        }
      ],
      "name": "getLiderbord",
      "outputs": [
        {
          "internalType": "string[]",
          "name": "",
          "type": "string[]"
        },
        {
          "internalType": "int256[]",
          "name": "",
          "type": "int256[]"
        }
      ],
      "stateMutability": "view",
      "type": "function",
      "constant": true
    },
    {
      "inputs": [
        {
          "internalType": "string",
          "name": "_link",
          "type": "string"
        },
        {
          "internalType": "string[]",
          "name": "_liderbordNames",
          "type": "string[]"
        }
      ],
      "name": "addResource",
      "outputs": [],
      "stateMutability": "nonpayable",
      "type": "function"
    },
    {
      "inputs": [
        {
          "internalType": "string",
          "name": "_link",
          "type": "string"
        }
      ],
      "name": "getResource",
      "outputs": [
        {
          "internalType": "string[]",
          "name": "",
          "type": "string[]"
        },
        {
          "components": [
            {
              "internalType": "int256",
              "name": "value",
              "type": "int256"
            },
            {
              "internalType": "uint256",
              "name": "index",
              "type": "uint256"
            }
          ],
          "internalType": "struct Liderbords.Score[]",
          "name": "",
          "type": "tuple[]"
        }
      ],
      "stateMutability": "view",
      "type": "function",
      "constant": true
    },
    {
      "inputs": [
        {
          "internalType": "string",
          "name": "_link",
          "type": "string"
        }
      ],
      "name": "deleteResource",
      "outputs": [],
      "stateMutability": "nonpayable",
      "type": "function"
    },
    {
      "inputs": [],
      "name": "claimHappycoins",
      "outputs": [],
      "stateMutability": "nonpayable",
      "type": "function"
    },
    {
      "inputs": [
        {
          "internalType": "string",
          "name": "_link",
          "type": "string"
        },
        {
          "internalType": "string",
          "name": "_liderbordName",
          "type": "string"
        },
        {
          "internalType": "int256",
          "name": "_side",
          "type": "int256"
        }
      ],
      "name": "vote",
      "outputs": [],
      "stateMutability": "nonpayable",
      "type": "function"
    },
    {
      "inputs": [
        {
          "internalType": "address",
          "name": "_trustedForwarder",
          "type": "address"
        }
      ],
      "name": "setTrustForwarder",
      "outputs": [],
      "stateMutability": "nonpayable",
      "type": "function"
    },
    {
      "inputs": [],
      "name": "versionRecipient",
      "outputs": [
        {
          "internalType": "string",
          "name": "",
          "type": "string"
        }
      ],
      "stateMutability": "pure",
      "type": "function",
      "constant": true
    }
  ],
  "bytecode": "0x608060405234801561001057600080fd5b506040516200175638038062001756833981016040819052610031916100ae565b600080546001600160a01b0319166001600160a01b03831617905561005461007a565b600480546001600160a01b0319166001600160a01b0392909216919091179055506100de565b60006014361080159061009757506000546001600160a01b031633145b156100a9575060131936013560601c90565b503390565b6000602082840312156100c057600080fd5b81516001600160a01b03811681146100d757600080fd5b9392505050565b61166880620000ee6000396000f3fe608060405234801561001057600080fd5b50600436106100a95760003560e01c80637da0a877116100715780637da0a8771461014a5780638da5cb5b1461016f578063c91cf70414610182578063ce3e1ebe14610195578063cffcf375146101b6578063ddf0b3da146101c957600080fd5b8063486ff0cd146100ae5780634beb279b146100da578063572b6c05146100e457806365d801171461011657806369fb79d914610137575b600080fd5b60408051808201825260018152603160f81b602082015290516100d191906110e3565b60405180910390f35b6100e26101dc565b005b6101066100f23660046110fd565b6000546001600160a01b0391821691161490565b60405190151581526020016100d1565b6101296101243660046111dd565b6103e1565b6040516100d1929190611272565b6100e26101453660046112d3565b610626565b6000546001600160a01b03165b6040516001600160a01b0390911681526020016100d1565b600454610157906001600160a01b031681565b6100e26101903660046111dd565b610813565b6101a86101a33660046111dd565b610983565b6040516100d19291906113ba565b6100e26101c4366004611404565b610bd2565b6100e26101d73660046110fd565b610e6e565b601e600360006101ea610ece565b6001600160a01b03168152602081019190915260400160002054106102565760405162461bcd60e51b815260206004820152601860248201527f4d6178696d756e206f66203330206861707079636f696e73000000000000000060448201526064015b60405180910390fd5b4260036000610263610ece565b6001600160a01b0316815260208101919091526040016000206001015461028d9062015180611487565b11806102bf5750600360006102a0610ece565b6001600160a01b03168152602081019190915260400160002060010154155b1561038d5742600360006102d1610ece565b6001600160a01b03166001600160a01b0316815260200190815260200160002060010181905550601460036000610306610ece565b6001600160a01b03168152602081019190915260400160002054106103425760036000610331610ece565b6001600160a01b0316815260200152565b600a60036000610350610ece565b6001600160a01b03166001600160a01b0316815260200190815260200160002060000160008282546103829190611487565b909155506103df9050565b60405162461bcd60e51b815260206004820152602160248201527f43616e277420636c61696d206861707079636f696e73206265666f72652032346044820152600d60fb1b606482015260840161024d565b565b60608060006001846040516103f6919061149f565b908152604051908190036020019020600181015490915060008167ffffffffffffffff81111561042857610428611126565b60405190808252806020026020018201604052801561045b57816020015b60608152602001906001900390816104465790505b50905060008267ffffffffffffffff81111561047957610479611126565b6040519080825280602002602001820160405280156104be57816020015b60408051808201909152600080825260208201528152602001906001900390816104975790505b50905060005b83811015610619578460010181815481106104e1576104e16114bb565b9060005260206000200180546104f6906114d1565b80601f0160208091040260200160405190810160405280929190818152602001828054610522906114d1565b801561056f5780601f106105445761010080835404028352916020019161056f565b820191906000526020600020905b81548152906001019060200180831161055257829003601f168201915b5050505050838281518110610586576105866114bb565b6020026020010181905250846000018382815181106105a7576105a76114bb565b60200260200101516040516105bc919061149f565b9081526020016040518091039020604051806040016040529081600082015481526020016001820154815250508282815181106105fb576105fb6114bb565b602002602001018190525080806106119061150c565b9150506104c4565b5090969095509350505050565b600160036000610634610ece565b6001600160a01b031681526020810191909152604001600020541161069b5760405162461bcd60e51b815260206004820152601b60248201527f4e656564203220484320746f206164642061207265736f757263650000000000604482015260640161024d565b6002600360006106a9610ece565b6001600160a01b03166001600160a01b0316815260200190815260200160002060000160008282546106db9190611527565b9250508190555060006001836040516106f4919061149f565b9081526020016040518091039020905060005b825181101561080d576000838281518110610724576107246114bb565b602090810291909101810151600180860180549182018155600090815283902082519294506107599391019190840190610f02565b50600060028260405161076c919061149f565b90815260200160405180910390209050604051806040016040528060008152602001826000015481525084600001836040516107a8919061149f565b9081526040805160209281900383019020835181559282015160019384015583546000908152928401825290912087516107e492890190610f02565b5080548160006107f38361150c565b9190505550505080806108059061150c565b915050610707565b50505050565b6000600182604051610825919061149f565b9081526020016040518091039020905060005b600182015481101561093e576000600283600101838154811061085d5761085d6114bb565b90600052602060002001604051610874919061153e565b908152602001604051809103902090508060010160006001836000015461089b9190611527565b8152602001908152602001600020816001016000856000018660010186815481106108c8576108c86114bb565b906000526020600020016040516108df919061153e565b908152602001604051809103902060010154815260200190815260200160002090805461090b906114d1565b610916929190610f86565b508054816000610925836115da565b91905055505080806109369061150c565b915050610838565b5060018260405161094f919061149f565b908152604051908190036020019020600061096d6001830182611001565b5060020180546001600160a01b03191690555050565b6060806000600284604051610998919061149f565b90815260405190819003602001902054905060008167ffffffffffffffff8111156109c5576109c5611126565b6040519080825280602002602001820160405280156109f857816020015b60608152602001906001900390816109e35790505b50905060008267ffffffffffffffff811115610a1657610a16611126565b604051908082528060200260200182016040528015610a3f578160200160208202803683370190505b50905060005b83811015610bc65760006001600289604051610a61919061149f565b9081526040805191829003602090810183206000878152600190910190915220610a8a9161153e565b90815260200160405180910390209050600288604051610aaa919061149f565b908152602001604051809103902060010160008381526020019081526020016000208054610ad7906114d1565b80601f0160208091040260200160405190810160405280929190818152602001828054610b03906114d1565b8015610b505780601f10610b2557610100808354040283529160200191610b50565b820191906000526020600020905b815481529060010190602001808311610b3357829003601f168201915b5050505050848381518110610b6757610b676114bb565b60200260200101819052508060000188604051610b84919061149f565b908152602001604051809103902060000154838381518110610ba857610ba86114bb565b60209081029190910101525080610bbe8161150c565b915050610a45565b50909590945092505050565b6000600184604051610be4919061149f565b908152602001604051809103902090506000600284604051610c06919061149f565b90815260200160405180910390209050610c1e610ece565b60028301546001600160a01b0390811691161415610c7e5760405162461bcd60e51b815260206004820152601f60248201527f43616e277420766f7465206f6e20796f7572206f776e207265736f7572636500604482015260640161024d565b806002016000610c8c610ece565b6001600160a01b0316815260208101919091526040016000205415610cf35760405162461bcd60e51b815260206004820152601c60248201527f43616e277420766f74656420696e2074686973207265736f7572636500000000604482015260640161024d565b8260011480610d03575082600019145b610d4f5760405162461bcd60e51b815260206004820152601d60248201527f566f74652068617320746f206265206569746865722031206f72202d31000000604482015260640161024d565b600060036000610d5d610ece565b6001600160a01b0316815260208101919091526040016000205411610dc45760405162461bcd60e51b815260206004820152601f60248201527f4e65656420746f2068617665206861707079636f696e7320746f20766f746500604482015260640161024d565b60036000610dd0610ece565b6001600160a01b0316815260208101919091526040016000908120805491610df7836115da565b919050555082816002016000610e0b610ece565b6001600160a01b03166001600160a01b0316815260200190815260200160002081905550828260000185604051610e42919061149f565b90815260200160405180910390206000016000828254610e6291906115f1565b90915550505050505050565b610e76610ece565b6004546001600160a01b03908116911614610ead5760405162461bcd60e51b8152602060048201526000602482015260440161024d565b600080546001600160a01b0319166001600160a01b03831617905550565b50565b600060143610801590610eeb57506000546001600160a01b031633145b15610efd575060131936013560601c90565b503390565b828054610f0e906114d1565b90600052602060002090601f016020900481019282610f305760008555610f76565b82601f10610f4957805160ff1916838001178555610f76565b82800160010185558215610f76579182015b82811115610f76578251825591602001919060010190610f5b565b50610f8292915061101f565b5090565b828054610f92906114d1565b90600052602060002090601f016020900481019282610fb45760008555610f76565b82601f10610fc55780548555610f76565b82800160010185558215610f7657600052602060002091601f016020900482015b82811115610f76578254825591600101919060010190610fe6565b5080546000825590600052602060002090810190610ecb9190611034565b5b80821115610f825760008155600101611020565b80821115610f825760006110488282611051565b50600101611034565b50805461105d906114d1565b6000825580601f1061106d575050565b601f016020900490600052602060002090810190610ecb919061101f565b60005b838110156110a657818101518382015260200161108e565b8381111561080d5750506000910152565b600081518084526110cf81602086016020860161108b565b601f01601f19169290920160200192915050565b6020815260006110f660208301846110b7565b9392505050565b60006020828403121561110f57600080fd5b81356001600160a01b03811681146110f657600080fd5b634e487b7160e01b600052604160045260246000fd5b604051601f8201601f1916810167ffffffffffffffff8111828210171561116557611165611126565b604052919050565b600082601f83011261117e57600080fd5b813567ffffffffffffffff81111561119857611198611126565b6111ab601f8201601f191660200161113c565b8181528460208386010111156111c057600080fd5b816020850160208301376000918101602001919091529392505050565b6000602082840312156111ef57600080fd5b813567ffffffffffffffff81111561120657600080fd5b6112128482850161116d565b949350505050565b600082825180855260208086019550808260051b84010181860160005b8481101561126557601f198684030189526112538383516110b7565b98840198925090830190600101611237565b5090979650505050505050565b600060408083526112858184018661121a565b83810360208581019190915285518083528682019282019060005b818110156112c5578451805184528401518484015293830193918501916001016112a0565b509098975050505050505050565b600080604083850312156112e657600080fd5b823567ffffffffffffffff808211156112fe57600080fd5b61130a8683870161116d565b935060209150818501358181111561132157600080fd5b8501601f8101871361133257600080fd5b80358281111561134457611344611126565b8060051b61135385820161113c565b918252828101850191858101908a84111561136d57600080fd5b86850192505b838310156113a95782358681111561138b5760008081fd5b6113998c898389010161116d565b8352509186019190860190611373565b809750505050505050509250929050565b6040815260006113cd604083018561121a565b82810360208481019190915284518083528582019282019060005b81811015611265578451835293830193918301916001016113e8565b60008060006060848603121561141957600080fd5b833567ffffffffffffffff8082111561143157600080fd5b61143d8783880161116d565b9450602086013591508082111561145357600080fd5b506114608682870161116d565b925050604084013590509250925092565b634e487b7160e01b600052601160045260246000fd5b6000821982111561149a5761149a611471565b500190565b600082516114b181846020870161108b565b9190910192915050565b634e487b7160e01b600052603260045260246000fd5b600181811c908216806114e557607f821691505b6020821081141561150657634e487b7160e01b600052602260045260246000fd5b50919050565b600060001982141561152057611520611471565b5060010190565b60008282101561153957611539611471565b500390565b600080835481600182811c91508083168061155a57607f831692505b602080841082141561157a57634e487b7160e01b86526022600452602486fd5b81801561158e576001811461159f576115cc565b60ff198616895284890196506115cc565b60008a81526020902060005b868110156115c45781548b8201529085019083016115ab565b505084890196505b509498975050505050505050565b6000816115e9576115e9611471565b506000190190565b600080821280156001600160ff1b038490038513161561161357611613611471565b600160ff1b839003841281161561162c5761162c611471565b5050019056fea2646970667358221220d220747f963d55ecabdbbf32e98e583556b36084135c13abd616c26776b0d93364736f6c63430008090033",
  "immutableReferences": {},
  "source": "// SPDX-License-Identifier: MIT\npragma solidity ^0.8.9;\n\nimport \"@opengsn/contracts/src/BaseRelayRecipient.sol\";\n\ncontract Liderbords is BaseRelayRecipient {\n    struct Score {\n        int256 value;\n        uint256 index;\n    }\n    struct Resource {\n        // scores : mapping (liderbordName => score)\n        mapping(string => Score) scores;\n        string[] liderbords;\n        address owner;\n    }\n    struct Liderbord {\n        uint256 length;\n        mapping(uint256 => string) resources;\n        mapping(address => int256) voters;\n    }\n    struct User {\n        uint256 happycoins;\n        uint256 lastDateClaimed;\n    }\n    mapping(string => Resource) private resources;\n    // liderbords : mapping(liderbordName => Liderbord)\n    mapping(string => Liderbord) private liderbords;\n    mapping(address => User) private users;\n    address public owner;\n\n    modifier onlyOwner() {\n        require(owner == _msgSender(), \"\");\n        _;\n    }\n\n    constructor(address _trustedForwarder) {\n        _setTrustedForwarder(_trustedForwarder);\n        owner = _msgSender();\n    }\n\n    function getLiderbord(string memory _liderbordName)\n        public\n        view\n        returns (string[] memory, int256[] memory)\n    {\n        uint256 n = liderbords[_liderbordName].length;\n        string[] memory links = new string[](n);\n        int256[] memory scores = new int256[](n);\n        for (uint256 i = 0; i < n; i++) {\n            Resource storage resource = resources[\n                liderbords[_liderbordName].resources[i]\n            ];\n            links[i] = liderbords[_liderbordName].resources[i];\n            scores[i] = resource.scores[_liderbordName].value;\n        }\n        return (links, scores);\n    }\n\n    function addResource(string memory _link, string[] memory _liderbordNames)\n        public\n    {\n        require(\n            users[_msgSender()].happycoins > 1,\n            \"Need 2 HC to add a resource\"\n        );\n        users[_msgSender()].happycoins -= 2;\n\n        // require that the resource does not exist\n        Resource storage resource = resources[_link];\n        for (uint256 i = 0; i < _liderbordNames.length; i++) {\n            string memory liderbordName = _liderbordNames[i];\n            resource.liderbords.push(liderbordName);\n            Liderbord storage liderbord = liderbords[liderbordName];\n            resource.scores[liderbordName] = Score({\n                value: 0,\n                index: liderbord.length\n            });\n            liderbord.resources[liderbord.length] = _link;\n            liderbord.length++;\n        }\n    }\n\n    function getResource(string memory _link)\n        public\n        view\n        returns (string[] memory, Score[] memory)\n    {\n        Resource storage resource = resources[_link];\n        uint256 length = resource.liderbords.length;\n        string[] memory liderbordNames = new string[](length);\n        Score[] memory scores = new Score[](length);\n        for (uint256 i = 0; i < length; i++) {\n            liderbordNames[i] = resource.liderbords[i];\n            scores[i] = resource.scores[liderbordNames[i]];\n        }\n        return (liderbordNames, scores);\n    }\n\n    function deleteResource(string memory _link) public {\n        Resource storage resource = resources[_link];\n        for (uint256 i = 0; i < resource.liderbords.length; i++) {\n            Liderbord storage liderbord = liderbords[resource.liderbords[i]];\n            liderbord.resources[\n                resource.scores[resource.liderbords[i]].index\n            ] = liderbord.resources[liderbord.length - 1];\n            liderbord.length--;\n        }\n        delete resources[_link];\n    }\n\n    function claimHappycoins() public {\n        require(\n            users[_msgSender()].happycoins < 30,\n            \"Maximun of 30 happycoins\"\n        );\n        if (\n            users[_msgSender()].lastDateClaimed + 86400 > block.timestamp ||\n            users[_msgSender()].lastDateClaimed == 0\n        ) {\n            users[_msgSender()].lastDateClaimed = block.timestamp;\n            if (users[_msgSender()].happycoins >= 20) {\n                users[_msgSender()].happycoins == 30;\n            } else {\n                users[_msgSender()].happycoins += 10;\n            }\n        } else {\n            revert(\"Can't claim happycoins before 24h\");\n        }\n    }\n\n    function vote(\n        string memory _link,\n        string memory _liderbordName,\n        int256 _side\n    ) public {\n        Resource storage resource = resources[_link];\n        Liderbord storage liderbord = liderbords[_liderbordName];\n        require(\n            resource.owner != _msgSender(),\n            \"Can't vote on your own resource\"\n        );\n        require(\n            liderbord.voters[_msgSender()] == 0,\n            \"Can't voted in this resource\"\n        );\n        require(_side == 1 || _side == -1, \"Vote has to be either 1 or -1\");\n        require(\n            users[_msgSender()].happycoins > 0,\n            \"Need to have happycoins to vote\"\n        );\n        users[_msgSender()].happycoins--;\n\n        liderbord.voters[_msgSender()] = _side;\n        resource.scores[_liderbordName].value += _side;\n    }\n\n    function setTrustForwarder(address _trustedForwarder) public onlyOwner {\n        _setTrustedForwarder(_trustedForwarder);\n    }\n\n    function versionRecipient() external pure override returns (string memory) {\n        return \"1\";\n    }\n}\n",
  "sourcePath": "/Users/Patricio/Projects/insa/smart/moralis-biconomy-metatransactions/Truffle/contracts/Liderbords.sol",
  "compiler": {
    "name": "solc",
    "version": "0.8.9+commit.e5eed63a.Emscripten.clang"
  },
  "schemaVersion": "3.4.7",
  "updatedAt": "2022-05-03T09:13:56.661Z",
  "networkType": "ethereum",
  "devdoc": {
    "kind": "dev",
    "methods": {},
    "version": 1
  },
  "userdoc": {
    "kind": "user",
    "methods": {
      "isTrustedForwarder(address)": {
        "notice": "return if the forwarder is trusted to forward relayed transactions to us. the forwarder is required to verify the sender's signature, and verify the call is not a replay."
      }
    },
    "version": 1
  }
}